:020000040200F8
:1000000070640822253D0B02E1C30502313D0B025D
:10001000313D0B02313D0B02313D0B02313D0B02F4
:10002000000000000000000000000000313D0B0255
:10003000313D0B020000000069400B02DD400B0265
:10004000F5390602753A0602FD3A0602913B0602B0
:100050000D2E0B02B12D0B025577090251690602D4
:1000600051690602B169060291230B0255260B0263
:10007000F9390B0291230B0239410A0261410A024C
:1000800089410A02A5410A0291230B0291230B0226
:10009000B1800502BF1C0602211E0602F51E0602E3
:1000A000BF1C06028D1D060291230B0291230B0239
:1000B0002902000200000000000000000000000013
:1000C0000000000000000000000000000000000030
:1000D0000000000000000000000000000000000020
:1000E0000000000000000000000000000000000010
:1000F0000000000000000000000000000000000000
:1001000000000000000000000000000000000000EF
:1001100000000000000000000000000000000000DF
:1001200000000000000000000000000000000000CF
:1001300000000000000000000000000000000000BF
:1001400000000000000000000000000000000000AF
:10015000000000000000000000000000000000009F
:10016000000000000000000000000000000000008F
:10017000000000000000000000000000000000007F
:10018000000000000000000000000000000000006F
:10019000000000000000000000000000000000005F
:1001A000000000000000000000000000000000004F
:1001B000000000000000000000000000000000003F
:1001C00040B1401E002800BF00BF00BF00BF00BFFD
:0801D00000BFF6D170470000EA
:1001E0000000000000002440000000000000594012
:1001F000000000000088C3400000000084D7974141
:100200000080E03779C34143176E05B5B5B8934612
:10021000F5F93FE9034F384D321D30F94877825ADE
:100220003CBF737FDD4F157538B5DFF84C4C256842
:10023000E9070BD50122DFF8443C6260187828B149
:100240000022042103F1080001F076F915F0405F67
:100250000CD04FF04051DFF8243C6160187828B191
:100260000022082103F1080001F066F9DFF8DC0C38
:10027000016821F48031016031BD00002DE9F34FA8
:1002800081B00400086905461CBF0029002842D03F
:100290006168DFF8BC9C494512D029784FF0030B08
:1002A0002BFA01F0C30736D56B78DFF8D08B012726
:1002B000D8F80420480007FA03F383401A4201D01B
:1002C0000E20D9E0DFF88C6C06EB0136EFF31080DE
:1002D000009087F31088DFF880ACDAF800002A7805
:1002E000103207FA02F29043CAF80000DAF8000070
:1002F0000121962001F036F9009880F310880299C8
:10030000216026610298028822816978A17228788A
:10031000E072AA690AB90120AEE0936851681068DA
:100320001A689047A07A28B9316E8908890041F08F
:10033000F00103E0316E3C2060F387013166029AE0
:10034000A07AB2F900102A7B002807BF120202F43B
:10035000F852120602F0F852326095F801C068684F
:1003600006EB8C02037890F802C01B0403F47023A0
:10037000194343784FEA0C5C0CF4801C4CEA0101F1
:1003800090F803C05B0503F40013194303794FEAA7
:100390008C5C0CF4800C4CEA010190F805C080796B
:1003A000DB0503F4000319434FEA0C6C0CF0706C8E
:1003B0004CEA010141EA00712046116500F0D6FDCA
:1003C0000090DFF8980BB060F060A07A20B9316E31
:1003D00041F0F301316603E0326E42F0FC02326616
:1003E000009850BB98F8001041B9382224A108F1B8
:1003F000080001F00BF908B988F800705020DFF808
:10040000601B0870DFF8440B0268DFF8583B22F4E9
:10041000803202604FF080501860DFF84C1B08609B
:10042000C4F8049068782978D8F8042087404900F7
:100430008F401743C8F804701CE02978D8F80400EE
:1004400049000BFA01FB10EA0B0F13D1EFF31084F4
:1004500087F31088DAF80020287810308740174397
:10046000CAF80070DAF800000121962001F07AF84D
:1004700084F31088009800BF03B0BDE8F08F00003F
:100480004F5350495F444D415F4576656E7473002C
:100490002DE9F84F86B00E46002818BF002E0AD06E
:1004A0004BB14168DFF8A84AA14218BF072040F0CD
:1004B0008380C76807B98FE001464FF000080FF24C
:1004C00000191846944608288CBF4FF0080A824647
:1004D0006A46B9E83848A2E8384859F81439CDF8DE
:1004E00008C013603A89ADF80C203C798DF80E40B5
:1004F0007D798DF810A06D1C8DF80F50FC7B8DF868
:1005000011404AF009C86A4606EB080313F8014B8C
:1005100002F8014B0FF007C09DF80F309DF80E5008
:100520009DF81040D1F810E08A7A9B0003F01C037C
:1005300005F0030B43EA0B0B630103F4F07343EA8A
:100540000B0B9DF811305B0203F4785343EA0B0B5D
:100550004BF4004BBDF80C30012D0CBF4BEA036B84
:100560004BEA034BD20002F00802CEF87020052CB3
:10057000CEF880B00EF1840BCBF800C0DDE900238B
:10058000CBF8042024BFDDE90045CBF80850DEF8A5
:10059000702042F00102CEF8702000E000BFDEF8CB
:1005A0007030DA07FAD40EF5C872B0EB0A0014689E
:1005B000D0445460D44486D10FE000000000000015
:1005C000000000000000000000000000000000002B
:1005D0000000000000000000012007B0BDE8F08F1F
:1005E0002DE9F84F04000D4688B01146184618BF93
:1005F000002D0AD048B16268DFF854399A4218BF1A
:10060000072040F08480E2680AB901207FE00026DC
:100610000FF2041B06949246079508288CBF082702
:1006200007466A46DDF818C09BE8384382E838433D
:100630000291BAF80630069AADF80C309AF80440E8
:100640008DF80E409AF805508DF8107004F00308EC
:100650006D1C8DF80F502D06AD0D05F01C0545EAFB
:1006600008059DF810809AF80EE0012C4FEA481812
:1006700008F4F0788DF811E04FEA4E2E48EA0505AF
:100680000EF4785EDCF810C0927A4EEA050E0CBFCC
:100690004EEA036E4EEA034ED20002F00802CCF896
:1006A0007020CCF880E0CCF88410DCF8702042F0A8
:1006B0000102CCF8702000E000BFDCF87030DD07EC
:1006C000FAD40CF1840E0023DEF80420CDE90023D7
:1006D0009DF81020052A05D3DDE90089DEF8082001
:1006E000CDE900820CF5C872D2F800C0C2F804C08F
:1006F00047F009C8079A6B46324413F8014B02F8D9
:10070000014B0FF007C0BE197918C01B85D109B085
:10071000BDE8F08F000000000000000000000000B5
:1007200000000000000000000000000000000000C9
:1007300010B5002818BF002901D08B7B0BB9012010
:1007400010BD4368DFF80848A34201D0072010BD60
:1007500000F01DFD002010BD81B000281ABF016807
:100760000029012031D04268DFF8E4379A4218BFEF
:1007700007202AD1026900238DF80030807A0028F2
:100780000CBF4FF000404FF01040536E43F44063F5
:10079000536600E000BFD2F884C11CF0030FF9D10A
:1007A000F52313664B89898943EA012343F4803397
:1007B0009366D36600788DF8000000E000BFD2F8A1
:1007C000841111F0030FF9D1002001B0704781B0FE
:1007D00000281ABF01680029012031D04168DFF8E4
:1007E0007027914218BF07202AD1016900228DF895
:1007F0000020807A00280CBF4FF000404FF01040DE
:100800004A6E42F440624A6600E000BFD1F884318B
:1008100013F0030FF9D18A6E22F480328A66CB6E10
:1008200023F48033CB6600788DF8000000E000BF31
:10083000D1F8842112F0030FF9D1FF2008660020BF
:1008400001B070472DE9F04F85B0002818BF00298E
:1008500000D00BB9012064E04468DFF8F4B65C45D1
:1008600018BF07205DD1847A002C0CBF02F1004232
:1008700002F110420068002740F2E9386FF00309E6
:10088000DFF8F8A593460469A66900911C464FF469
:100890000045A54288BF2546706807EB0B0102683A
:1008A0005160009BD0F800C03B44CCF80830016890
:1008B000CA7802F0CF02CA700168CB7803F03F0318
:1008C000CB700268D5810168B36830685A68904778
:1008D00038BB9AF8000028B1022249460AF1080004
:1008E00000F02AFEB368306801215A699047C0B908
:1008F000404600F009FDA0B9002101A80022002314
:100900008C4680E80E10B368306801A9DA69904718
:1009100038B9049919B9EF19641BB8D101E04FF443
:10092000967005B0BDE8F08F2DE9F84F9AB04FF002
:100930000009002818BF00290DD063B14468DFF812
:100940001056AC4218BF072040F0C7804FF0FF3769
:10095000BF1A9F4201D20120BFE00568DFF8D449E9
:1009600001262F694FF42965BF69D7F804E0DEF846
:10097000048098F800C015FB0CFC04EB0C0888F808
:100980003060847A002C0CBF4FF0004E4FF0104EB8
:100990006FF00305DFF8E46409951D460190924667
:1009A0000391CDF808E00AF03F02100000924FEAF0
:1009B0009A141DD0C0F14000AB46854288BF8346E3
:1009C000FF2240210AA8A5EB0B0500F065FEDDF82B
:1009D0000CC0009B0AA85A460CEB0901D9441844E4
:1009E000DA4400F077FE02990AA801EB84140AE0C9
:1009F000402DDFD30398029C484409F14009403D53
:100A000054440AF1400A79680A68506008688460B2
:100A10000868C27802F0CF02C2700868C37803F099
:100A20003F03C3700A684020D081BB6809683868FA
:100A30005A68904704004CD1019800F066FB04000E
:100A400047D1307828B10999022206F1080000F058
:100A500073FDBB68386801215A699047040038D19A
:100A6000307848B340F2E93108AB0091012201210E
:100A700006F1080000F082FE00BB0790BB683868F2
:100A800004A9DA699047040023D10798D8B90198DE
:100A90006FF00102002100F04FFCC8B9652000F0A2
:100AA000D8FC8346019800F0BBFCBBF1000F0DD1D0
:100AB000002D7FF478AF0CE021240AE0072814BF52
:100AC0006424142405E04FF4967402E05C4600E0D0
:100AD0001824002088F8300020461BB0BDE8F08FB5
:100AE0002DE9F84F86B0060018BF002A00F0988064
:100AF0007468DFF85C74BC4218BF072040F0CA80FD
:100B000050188842C0F08C80F46800F6FF70000B2B
:100B1000090B00034FEA0138002CA0EB013700F06D
:100B20007F80D4F81CC0002000219CF804E0BEF1B6
:100B3000000F14D0DCF800C04EF001E0DCF80090AB
:100B4000B9F5803F08BFBCF8040004D0B9F5805F58
:100B500008BFBCF804100CF1080C0FF011C82D06EA
:100B6000ED0B05F47855029403950024ADF80200CE
:100B700042F21179ADF800106FF0010ACDE90423BB
:100B800002E0019988447F1A002F7DD0002C7BD190
:100B9000B7F5803F09D35FEA084106D1BDF80200EE
:100BA00018B105464FF4803105E0BDF80000B8B338
:100BB00005464FF480510191304600F0A6FA04003A
:100BC00062D102993269B07A91F805C00B79039924
:100BD0000CF1010C4FEA0C6C4FEA9C5C0CF01C0C05
:100BE0004CEA010C03F0030141EA0C0141F400411D
:100BF000012B14BF41EA054141EA0561C00000F044
:100C00000800106702F18403C2F88010C3F8008066
:100C1000DDE904015860136F43F00103136701E03D
:100C2000DAE400BF106FC107FBD402F5C870026898
:100C3000426000F0C5FD834652460021304600F078
:100C40007BFB050013D1652000F003FC0546304610
:100C500000F0E6FB3068017A304600F0DEF940B182
:100C600000F0AEFDA0EB0B004845E5D303E01824EF
:100C700002E0002500E0142400F0A2FD002D18BFC2
:100C8000142C3FF47EAF2C46200003D132694FF480
:100C900040615166A1E410B50C46002818BF002C35
:100CA00001D1012010BD4168DFF8E027914201D059
:100CB000072010BD0368197A00F0AFF920700020FA
:100CC00010BD0620704738B5040001D1012032BDA7
:100CD0006068DFF8B827904201D0072032BDB4F930
:100CE00008502181204600F041F9052808BF2581E0
:100CF00032BD2DE9F04192B004000D4608BF01203D
:100D000000F0B68060689249884218BF072040F022
:100D1000AF8028001EBF40F2FF318D42052040F019
:100D2000A780B4F90800A84200F0A180204600F096
:100D3000BFFA002840F09C80B4F9080030B10021CF
:100D40002046FFF7C0FF002840F092804FF47A71F0
:100D50000A2000F007FC40F2FF36B5422DD10FF219
:100D60004871684691E88C5180E88C5101226946AF
:100D7000204600F00CFA0FF248710CA891E88C5153
:100D800080E88C5101220CA9204600F000FA0122D3
:100D90006946204600F0FBF90FF23C7106A891E885
:100DA0008C5180E88C51012206A9204600F0EFF911
:100DB0004FF47A71012000F0D5FB29462046FFF759
:100DC00082FF002854D1B54251D10FF224716846F8
:100DD00091E8EC1080E8EC102269A07A9DF80F10E1
:100DE0009DF810409DF80E50890001F01C0105F09F
:100DF00003030B439DF81110660106F4F0763343AC
:100E0000490201F478511943BDF80C30012D0CBF93
:100E100041EA036141EA0341C00000F008001067A5
:100E2000C2F880100298C2F88400116F41F00101ED
:100E3000116700E000BF106FC307FBD402F1840309
:100E40000021052C5868CDE9000106D3DDE90045F5
:100E5000986845EA0007CDE9004702F5C8700268C6
:100E600042600098C0B2022818BF182000D10020AC
:100E700012B0BDE8F081000090812640E49B07227B
:100E80002DE9F04104001CBF2068002801D0016951
:100E900011B90120BDE8F08161682D4A914218BF67
:100EA000072051D10569DFF8E86501274FF00308F5
:100EB000A9698A680868116A884728786A78716819
:100EC000400007FA02F28240914308FA00F0014222
:100ED00017D14FF08050DFF8BC150860BFF34F8F7B
:100EE000BFF36F8F1F4A10601848036823F48033E4
:100EF0000360307828B106F1080000F06BFC002098
:100F000030700021616028786A787168400008FAC2
:100F100000F807FA02F28240914311EA080F71606B
:100F200011D1EFF3108487F310880B4801682A78F9
:100F3000103297400F43076000680121962000F0AF
:100F400011FB84F310880020BDE8F08170C30040DD
:100F50003038434D0080264004302040800F01008F
:100F60001CE400E080E200E000E100E0F0B4016891
:100F700003690969896800294CD00024002501E033
:100F8000641C20350A79944244D20E687219B0F973
:100F90000860B2F90070B742F2D1002A3AD0817AE3
:100FA000C26003EB81010C6DD57866F3090465F32B
:100FB0008A240C65547C9178557941EA0446AC004A
:100FC00004F00C043443032D08BF44F47004857A04
:100FD000214303EB051631611579D1881489012D60
:100FE00004BF09022402D57B867A927B89B203EB87
:100FF0000617A4B2120402F4F81211432D04796109
:10100000807A05F4F8152C4303EB001100208C6165
:10101000F0BC70470520F0BC70472DE9F04786B062
:10102000C668B2891AB9002006B0BDE8F0870FF291
:10103000D8446B4694E8A04783E8A047ADF80C205D
:1010400035798DF80E50377C8DF81170B37C2BB14B
:10105000347E641C8DF80F40736902939DF80F3045
:101060004BB1B0F9084040F2FF3C644503D17379BD
:101070005B1C8DF80F300469837A9DF80FC09DF8D2
:10108000100005F003067F0207F478574FEA8C0C36
:101090000CF01C0C4FEA401E4CEA06060EF4F07EE3
:1010A0004EEA06063743012D0CBF47EA026747EABE
:1010B0000247DB0003F008032367C4F88070029A3C
:1010C000C4F88420236F43F00103236700E000BFCE
:1010D000226FD507FBD404F18405002305286A6834
:1010E000CDE9002306D3DDE90067AA6847EA0209D3
:1010F000CDE9006904F5C87004684460009806B042
:10110000C84000F00100BDE8F087F8B50546E96881
:10111000488900283AD00FF208440F79D4E9002317
:101120002969AC7A07F0030646F40046012F0CBF8C
:1011300046EA006646EA0046E40004F008040C674C
:1011400001F18400C1F88060002404604260086FEF
:1011500040F00100086700E000BF0A6FD007FBD431
:1011600001F5C8706FF0020203680221436028464F
:1011700000F0E2F838B9652000F06BF90446284623
:1011800000F04EF90CB11320F2BD0020F2BD2DE9A4
:10119000F002CB7B8D7B0F7C0669807A9B0003F08D
:1011A0001C0305F003041C434B7C7F0107F4F0771C
:1011B0003C435B0203F478531C43D30303F4004322
:1011C00023438C89012D0CBF43EA046343EA0443A3
:1011D000C00000F008003067012AC6F8803006F130
:1011E00084008B68036008D1D1E9004544600B7C22
:1011F000052B24BFD1E900458560336F43F001031F
:10120000336700E000BF346FE507FBD46AB942687A
:101210000023C1E900230F7C052F06D3D1E9004547
:10122000826845EA0209C1E9004906F5C87001680B
:101230004160BDE8F0027047F8B586B006000D4683
:10124000144618BF002D02D00CB1092C02D3012086
:1012500007B0F0BD7168DFF83472B94218BF0720DB
:1012600024D12146284600F0CBFA6846002100220E
:1012700000230EC00EC09F2702914FF0010EADF863
:101280000C708DF80EE069468DF80F2030468DF811
:1012900010408DF81130FFF74BFA38B9684610F856
:1012A000011B641E05F8011BF9D1002007B0F0BD39
:1012B00010B508B9012010BD4168744A914201D0AF
:1012C000072010BD04690121D4F8080120F4803002
:1012D000C4F80801322000F045F9D4F808010121D2
:1012E00040F48030C4F80801C82000F03BF9002029
:1012F00010BD674B187810B10022012100E0704743
:1013000003F1080000F018B91CB5614C217809B947
:10131000212016BD009001AB0122012104F108003B
:1013200000F02CFA20B1072801D1142016BD64204A
:1013300016BD000000A000402DE9F04300260B463A
:101340000469C568B14610B90120BDE8F083416861
:10135000DFF838C1614518BF07205FD1A98911B9ED
:101360000020BDE8F083B44640F2FF37C4F870C0F7
:1013700090F80AE0B0F90800DFF81CC195F8108079
:101380004FEACE0E0EF0080E4CEA0E0C95F804E073
:10139000B8420CBF01270027A87CD8B12E7ED5F813
:1013A0001490761CD7B920203706BF0D0EF0030528
:1013B00007F01C073D434FEA4828284308F47858B3
:1013C00048EA0008BEF1010F0CBF48EA016848EA8C
:1013D000014805E0002FE6D06E79761C4020E3E757
:1013E000C4F88080F6B20EB1C4F88490636704F547
:1013F000CA70A2670125056028490A68284B4CF08D
:10140000010C22F480320A604FF080511960456867
:1014100045F0010545600020C4F870C0BDE8F083C8
:10142000B0B14168194A914212D1006900220023EB
:10143000016F21F0020101674267836700F5CA70FE
:101440004168490849004160026842F001020260B7
:1014500070473EB50E4C217811B9212003B030BD44
:1014600000250090019501AB01220C2104F1080038
:1014700000F084F910B1142003B030BD01980107C9
:101480004CBF1820002003B030BD00003038434D61
:10149000E49B072280E100E00200060F70C30040D9
:1014A00080E200E0000000000000000000000000FA
:1014B0000000000006000100000000000000000025
:1014C000070000000000000000030000720001049B
:1014D0000100000000000000020000000000000009
:1014E0000000000072000104010000000000000084
:1014F0000000000000000000000000008E710204E7
:1015000002040000000000000000000000000000D5
:1015100000000000000000000100000000000000CA
:1015200000000000000000000000000000000000BB
:10153000000000000000000018B418B10368084C57
:10154000A34202D0062012BC7047022A1CBF002A08
:10155000082002D118BC00F057B912BC704700BF78
:101560004E4456444843214998B50968204A0FF231
:10157000910C914210D31CF0060F14BF1D4A1E4A55
:10158000B1FBF2F1A1FB0001012399422AD210B173
:10159000BDE8924034E091BD4FF47A74174AB2FB33
:1015A000F1FEA4FB00230021012714FB0133BB4201
:1015B00009D2B2FBFEF01CF0060F14BF022101217C
:1015C000B0FBF1F0E3E71CF0060F18BF4FEA4E0E38
:1015D000B0FBFEF2A4FB0201002314FB0311B9428D
:1015E00000D8D4D34FF0FF30D2E7000018AE082265
:1015F00000127A0080841E0040420F0000CA9A3B0D
:1016000001380028FCD170477047E20070B5040033
:101610000D4621D0382A1FD1EFF3108172B61A4837
:101620000268521C026081F310881849184E0A683B
:10163000366842F005C8B44202D0B6690FF005C85A
:10164000EFF3108172B60268521E026081F31088B7
:1016500000F0C8F9B44201D1062070BD0D4A1068EF
:10166000EFF30581084308D01168EFF305800143CB
:10167000B1F1F03F01D2132070BD29462046BDE8EC
:10168000704000F0DBB900BFE4500822CC4F0822C4
:10169000C84F08221041002262F30F2262F31F425A
:1016A00000B500BF130096469446103928BFA0E845
:1016B0000C50FAD85FEA417C28BF0CC048BF40F804
:1016C000042BC90728BF20F8022B48BF00F8012BC4
:1016D00000BDE00062B38B0708D0521E11F8013B39
:1016E00000F8013B00F024808B07F6D1830740F01F
:1016F000208000BF103A07D330B4B1E83810103A58
:10170000A0E83810F9D230BC530724BFB1E8081064
:10171000A0E8081044BF51F8043B40F8043BD2074E
:1017200024BF31F8022B20F8022B44BF0B78037042
:101730007047121F17D35B0009D151F8043B20F802
:10174000023B1B0C121F20F8023BF6D20BE051F8B3
:10175000043B00F8013B1B0A20F8023B1B0C121F44
:1017600000F8013BF3D238BF121D521E24BF11F8FE
:10177000013B00F8013BF8D87047E1007CB518B197
:1017800004680D4DAC4201D0062076BD0BB9032094
:1017900076BD069C3CB1094E3568EFF305863543AE
:1017A00001D0042076BD032A01D9082076BD00941B
:1017B00000F06AF976BD00BF4E4456441041002245
:1017C000EFF3108172B60248006881F31088704709
:1017D0003451082218B10168074A914201D006200D
:1017E0007047064B1968EFF30582114308BF00F0FC
:1017F000CBB91320704700BF4E445644104100221D
:10180000002200F00FBAFA002DE9FC4B0446EFF37A
:10181000108672B6714803685B1C0360606A401CE6
:10182000920760620ED5606930B1226922B9206AE0
:1018300060EA0101216202E0A2681140A16086F322
:101840001088C7E0606B0190A568206A0D43A56011
:1018500010B120EA01012162002000902069616935
:10186000002800F0A980012926D1D0F88030826FAD
:101870009F0702EA050102D5914240F0A0800029AD
:1018800000F09D80C16FDB070D6003D5A56825EAD8
:101890000202A2600021216161618166C0F88410AA
:1018A0004F490B685B1C0B6086F3108800F0EAF967
:1018B000EFF3108672B682E00022494B2261D3F822
:1018C00000E007464FF0010894460EF1010EC3F800
:1018D00000E00346CDF80080002086F31088EFF387
:1018E000108672B6E2682AB1A2680021E1601F4644
:1018F00061691543D7F88080D7F878E0D7F8709001
:101900005FEA887B0EEA050202D5724518BF002205
:10191000D7F830B0BBF1070F0FD13AB3FA6F5FEAD7
:10192000C878156005D5D4F808B02BEA0E0EC4F8B7
:1019300008E00022BA66C7F884204F450FD07A6FBE
:10194000BB42C9F87420C2F870900AD06269521E76
:101950000028626114BFCCF87070384603E00023A1
:10196000F4E73B6FF2E70022BC463A67491E4F4658
:10197000B3D1216A236129B1A26822EA0101A160E1
:101980000021216286F31088154E00280BE0056FB8
:10199000EFF3108172B63268521C326081F3108806
:1019A00000F070F92800F2D1EFF3108672B60C48FF
:1019B0000168491E016002E009B10122E26086F37C
:1019C0001088019810B1019920468847009808B105
:1019D00000F008F80020BDE8F68B00BFD04F0822C9
:1019E000E45008220F490868D8B90F4B0F4918680E
:1019F0000A68824215D020B90D480168491C01606F
:101A000003E00C480268521C02604FF080500A4903
:101A10000860EFF3058020B9EFF3108062B680F321
:101A200010887047E4500822485008224450082289
:101A3000085108220C51082204ED00E038B50D468B
:101A40000446382100F00CFA6560EFF3108172B69D
:101A50000A4A0B4B22600B4A106818B91C602346D7
:101A6000254603E01B68DD69DC61AC61401C106049
:101A7000E561A36181F31088002032BD4E445644D5
:101A8000C84F0822CC4F0822F8B5EFF3108672B683
:101A9000384C02F0020C25686D1C2560846A056ACA
:101AA000641C8462846824EA05051D60076A3D00A1
:101AB00018BFBC430C40BCF1020F29D18C4227D087
:101AC000069C002C51D0DFF8B0C0DCF80050002D8F
:101AD0004BD1002949D0294DDFF8A4E02F687F1CA5
:101AE0002F60C56A274F6D1CC562DEF80050AF66D7
:101AF00005F18407A967C5F88020EB67E866B96D32
:101B0000491CB9654169A1B905612D676D6716E08A
:101B1000002CD5D0D3070AD5426922B1036913B985
:101B20003943016203E0826822EA010181600020FA
:101B30001CE002692A67536F6B671D675567491C74
:101B40004161072001212863A963EC64DCF80020CF
:101B5000521CCCF8002086F31088284600F084F947
:101B6000EFF3108672B6386800E0072086F310881D
:101B7000F2BD00BFD44F0822E4500822D84F0822FB
:101B8000445008225D450B0270B5EFF3108272B627
:101B900000211F4B016019681E4C491E08BF00251B
:101BA00007D08669C569F561AE612568854208BFC1
:101BB0003546196000232560174D29680024491C0B
:101BC0002960016904614469436182F310889CB112
:101BD000EFF3108072B6002201238A660E6FC1F8FF
:101BE00084302A68521C2A6080F31088084600F06E
:101BF00049F8641E3146EBD1EFF3108072B62968C4
:101C0000491E296080F31088FFF7ECFE002070BDAC
:101C1000CC4F0822C84F0822E450082262F30F225A
:101C200062F31F42401810F0030308D0C91A1FD3F3
:101C3000DB0748BF00F8012D28BF20F8022D130054
:101C400030B414461546103928BF20E93C00FAD8B4
:101C5000490728BF20E90C0048BF40F8042D89003F
:101C600028BF20F8022D48BF00F8012D30BC704776
:101C7000C91818BF00F8012DCB0728BF00F8012DA7
:101C80007047C0C0F8B50446EFF3108572B6606EB9
:101C900020B104F14C0000F0EBF901E00021E16417
:101CA000604B614E1868401E1860A16B206B0029C4
:101CB00078D1002800F08C80606B00286DD15B48E3
:101CC00021630268E16A521C0260D4F8AC00584AF1
:101CD000401CC4F8AC0052F82100002857D142F84B
:101CE0002140544F246201226462D7F800C002FAF6
:101CF00001F040EA0C0C5048C7F800C00768B94230
:101D000066D20160306808B9346061E0C76BB942DF
:101D10005ED2C16A8F4206D0484F8A40D7F800C0D1
:101D200042EA0C023A60464F3968EFF305821143EC
:101D300009D144490A68521C0A6000F1B4010F68D5
:101D40007F1C0F600FE03A68EFF305810A43B2F1A0
:101D5000F03F08D23C490F687F1C0F6000F1B401CE
:101D60004A68521C4A60B430384AC4603848016836
:101D700052F82170A74206D0491C082928BF00212B
:101D8000016042F82140346085F3108837E0416AF1
:101D90000C624462616220621AE0002003216063E9
:101DA000216315E0012818BF022811D0606B10B91B
:101DB0000021A16302E000206063032020631B4830
:101DC0000168491C0160D4F8AC00401CC4F8AC00A8
:101DD0001F481E490268346851F82270A74207D094
:101DE000521C082A28BF00220260104641F82040F9
:101DF0001849086885F310883268904211D0186835
:101E000078B91548154A0168491C01604FF08050A7
:101E10001060EFF3058020B9EFF3108062B680F315
:101E20001088F1BDE450082248500822EC500822E6
:101E300064500822545008225C500822585008224E
:101E400010410022F4500822F850082214510822B0
:101E500010510822445008220C51082204ED00E0E1
:101E60000022FFF71DBCC0C0F8B5064672480468E2
:101E7000EFF3108572B6A6420BD1F06C00281EBF9E
:101E800010F1010F06F14C0000F008F9F1696B4AFE
:101E900011606B4A1068401E1060D6F8B030694877
:101EA0005B1CC6F8B0300168674B491C0160B06B21
:101EB000012840F0A280306A0021B163D6F82CC01E
:101EC000624FB04215D0716A4162086257F82C1017
:101ED000B1423DD147F82C005D490868002837D051
:101EE0004FF0010E0EFA0CFC20EA0C0CC1F800C0F9
:101EF0002EE047F82C105748012101FA0CFC01682C
:101F00006FEA0C0CDFF848E10CEA01010160DEF831
:101F1000000018B10CEA000CCEF800C04E4891B990
:101F20002021002401601C6085F3108810680028BF
:101F300040F0808049484A4A0168491C01604FF0DE
:101F4000805010606EE091FAA1F1B1FA81F1016068
:101F50001868864243D1404C216857F821C03C495B
:101F6000C3F800C00868E0B11668761C166085F3F7
:101F70001088EFF3108572B61068401E1060086874
:101F8000246890FAA0F6B6FA86F657F82670D7F8C5
:101F90003CC0644505D31F60012707FA06F6B0432D
:101FA000086018682F490B682F4C54F8236086424C
:101FB00007D05B1C082B28BF00230B60194644F890
:101FC000210085F310881068002833D12748244A5F
:101FD0000168491C01604FF08050106022E02149E7
:101FE000214E0F6856F827C0844506D07F1C082F65
:101FF00028BF00270F6046F8270085F3108818686F
:10200000844217D01168A9B920B914480168491C45
:10201000016003E015480268521C02604FF08050D6
:102020000F490860EFF3058020B9EFF3108062B626
:1020300080F31088F1BD00BF44500822F0510822FF
:10204000E4500822F0500822485008226450082228
:1020500058500822545008225C5008220851082287
:1020600004ED00E010510822145108220C510822FE
:10207000816991B10269904205D10A6882420AD110
:1020800000230B6007E0436953611A610B688342C8
:1020900004BF91610A6000218161704701680029D5
:1020A00000D1704711F1010F30B41FD08269EAB935
:1020B00021292EBF7C21491E89000D4A15686A1806
:1020C0000C4909688A4205D30B4B521A1C6822F04E
:1020D00003022244116819B900614061106004E0F4
:1020E0004B691861486101614361826130BC70478E
:1020F00044510822405108223C51082243414E20BD
:1021000048616E646C65723A20556E6B6E6F776EC7
:10211000206D6573736167652049442030782530F0
:102120003858000043414E20436D643A20307825F2
:10213000303858204C5B25752575257525755D2033
:10214000525B25752575257525755D20505B2575B8
:102150002575257525755D20545B257525752575B7
:1021600025755D204325750043414E20436F6D6DFD
:10217000616E643A20434F4153545F414C4C20659B
:1021800078656375746564202D20616C6C206D6FBB
:10219000746F727320636F617374696E67000000FF
:1021A0005F436F6E74726F6C5F6D6F746F725F669A
:1021B000726F6D5F73797374656D5F636F6D6D6161
:1021C0006E64000043414E2048616E646C65723A53
:1021D000204D6F746F722025752028257329206586
:1021E0006D657267656E63792073746F7020286403
:1021F000697265637429000043414E2048616E6432
:102200006C65723A204D6F746F72202575202825F9
:10221000732920656D657267656E63792073746FCD
:1022200070206661696C656420286572726F723A0D
:10223000202575290000000043414E2048616E644E
:102240006C65723A204D6F746F72202575202825B9
:10225000732920736F66742073746F700000000020
:1022600043414E2048616E646C65723A204D6F7434
:102270006F72202575202825732920736F667420BE
:1022800073746F70206661696C6564202871756570
:102290007565206572726F723A20257529000000FD
:1022A00043414E2048616E646C65723A204D6F74F4
:1022B0006F72202575202825732920726576657236
:1022C000736520646972656374696F6E2C20505762
:1022D0004D3D25752525000043414E2048616E6423
:1022E0006C65723A204D6F746F7220257520282519
:1022F0007329207265766572736520636F6D6D61F9
:102300006E64206661696C65642028717565756509
:10231000206572726F723A202575290043414E2064
:1023200048616E646C65723A204D6F746F7220253F
:1023300075202825732920666F7277617264206486
:102340006972656374696F6E2C2050574D3D257519
:102350002525000043414E2048616E646C65723A49
:10236000204D6F746F7220257520282573292066F3
:102370006F727761726420636F6D6D616E64206649
:1023800061696C6564202871756575652065727278
:102390006F723A202575290043414E2050617261C9
:1023A0006D657465722045786368616E67653A2073
:1023B0004661696C656420746F2073656E64207279
:1023C0006573706F6E73652C206572726F72206317
:1023D0006F64653A2025750043414E20506172615B
:1023E0006D657465722045786368616E67653A2033
:1023F0005265736574207265717565737465642CBC
:1024000020747970653A2025752C2064656C61799B
:102410003A202575206D730043414E205061726152
:102420006D657465722045786368616E67653A20F2
:10243000506572666F726D696E6720736F66747730
:1024400061726520726573657400000043414E201F
:10245000506172616D657465722045786368616E64
:1024600067653A20506572666F726D696E672068A5
:102470006172647761726520726573657400000033
:1024800043414E20506172616D65746572204578DC
:102490006368616E67653A20506572666F726D6938
:1024A0006E6720666163746F7279207265736574FC
:1024B0000000000043414E20506172616D657465FB
:1024C000722045786368616E67653A205065726670
:1024D0006F726D696E672073616665206D6F6465EC
:1024E000207265736574000043414E205061726133
:1024F0006D657465722045786368616E67653A2022
:10250000556E6B6E6F776E2072657365742074798B
:1025100070653A202575000043616E5F70617261DD
:102520006D5F70726F636573735F636C6561725F1B
:102530006D6F746F725F6572726F72735F726571C7
:10254000756573740000000043414E205061726154
:102550006D657465722045786368616E67653A20C1
:10256000544D433632303020647269766572732080
:10257000726573657420636F6D6D616E6420636F47
:102580006D706C657465640043414E2050617261EA
:102590006D657465722045786368616E67653A2081
:1025A000544D433632303020647269766572732040
:1025B000726573657420636F6D6D616E64207469FC
:1025C0006D656F7574202D20636F6E74696E75690B
:1025D0006E6720616E7977617900000043414E207B
:1025E000506172616D657465722045786368616ED3
:1025F00067653A204661696C656420746F20726576
:10260000717565737420544D4336323030206472D6
:1026100069766572732072657365740043414E205C
:10262000506172616D657465722045786368616E92
:1026300067653A20416C6C2073797374656D206511
:1026400072726F7220666C61677320636C65617271
:102650006564207669612043414E20636F6D6D6132
:102660006E64000043414E205461736B3A20466112
:10267000696C656420746F206372656174652043C2
:10268000414E205458207461736B2C206572726F18
:10269000723A20256400000043414E205461736B60
:1026A0003A204661696C656420746F2063726561CD
:1026B00074652043414E205258207461736B2C2066
:1026C0006572726F723A20256400000043414E200B
:1026D0005461736B3A2054696D656F75742077612E
:1026E0006974696E6720666F72205458206D616945
:1026F0006C626F782C207374617475733A20256452
:102700000000000043414E205461736B3A20466143
:10271000696C656420746F20777269746520434129
:102720004E206D6573736167652C206572726F72E0
:102730003A2030782578000043414E205461736B75
:102740003A205374617274696E672043414E206968
:102750006E7465726661636520696E697469616C27
:10276000697A6174696F6E0043414E205461736BE6
:102770003A204661696C656420746F20656E616201
:102780006C652043414E5F454E207369676E616CF6
:102790002C206572726F723A2025640043414E20EE
:1027A0005461736B3A2043414E5F454E2073696715
:1027B0006E616C20656E61626C6564207375636325
:1027C00065737366756C6C790000000043414E20A0
:1027D0005461736B3A204661696C656420746F20A4
:1027E0006372656174652043414E205458207175B1
:1027F0006575652C206572726F723A202564000041
:1028000043414E205461736B3A204661696C6564A4
:1028100020746F206372656174652043414E2052BD
:10282000582071756575652C206572726F723A203B
:102830002564000043414E205461736B3A20466189
:10284000696C656420746F206372656174652043F0
:10285000414E20545820636F6D706C6574696F6EC3
:102860002073656D6170686F72652C206572726F80
:10287000723A20256400000043414E205461736B7E
:102880003A204661696C656420746F206F70656ED4
:102890002043414E20696E746572666163652C2029
:1028A0006572726F7220636F64653A2030782578A4
:1028B0000000000043414E205461736B3A204341B5
:1028C0004E20696E74657266616365206F70656E17
:1028D0006564207375636365737366756C6C7900EA
:1028E00043414E205461736B3A20517565756520E4
:1028F00072656365697665206572726F723A20252C
:102900006400000043414E205461736B3A205458D8
:102910002071756575652066756C6C2C206D65730E
:10292000736167652064726F7070656400000000F9
:1029300043414E20436F6D6D756E69636174696FBD
:102940006E3A2054696D656F7574206465746563B3
:10295000746564202D206E6F206D657373616765EB
:102960007320726563656976656420666F722025E1
:1029700075206D730000000043414E20436F6D6D64
:10298000756E69636174696F6E3A20526573756D17
:1029900065642061667465722074696D656F757415
:1029A0000000000000000080000000800000000027
:1029B0000100000000000000000000000000000016
:1029C0000000000000000000000000000000000007
:1029D00000000000000000000000000000000000F7
:1029E00000000000000000000000000000000000E7
:1029F00000000000000000000000000000000000D7
:102A000000000000000000000000000000000000C6
:102A100000000000000000000000000000000000B6
:102A200000000000000000000000000000000000A6
:102A30000000000000000000000000000000000096
:102A40000000000000000000000000000000000086
:102A50000000000000000000000000000000000076
:102A60000000000000000000000000000000000066
:102A70000000000000000000000000000000000056
:102A80000000000000000000000000000000000046
:102A90000000000000000000000000000000000036
:102AA00000000000020D03000100000001007200A0
:102AB000CD9A0C0200000000D83D042248080022F4
:102AC000A42A0002C03D0422BC2A0002D86E0502DE
:102AD000D83D042258080022E06F0502D02A0002E7
:102AE00053FD070240400422DC2A00022040042259
:102AF000E02A000214700502EC2A00020000000027
:102B000071F307020000000040400422F82A00028E
:102B1000387005024C400422202D0002306F05025F
:102B20000000C0C1C1810140C30103C00280C24195
:102B3000C60106C00780C7410500C5C1C481044065
:102B4000CC010CC00D80CD410F00CFC1CE810E4015
:102B50000A00CAC1CB810B40C90109C00880C84125
:102B6000D80118C01980D9411B00DBC1DA811A4095
:102B70001E00DEC1DF811F40DD011DC01C80DC4165
:102B80001400D4C1D5811540D70117C01680D64195
:102B9000D20112C01380D3411100D1C1D0811040A5
:102BA000F00130C03180F1413300F3C1F281324095
:102BB0003600F6C1F7813740F50135C03480F44165
:102BC0003C00FCC1FD813D40FF013FC03E80FE4115
:102BD000FA013AC03B80FB413900F9C1F881384025
:102BE0002800E8C1E9812940EB012BC02A80EA4195
:102BF000EE012EC02F80EF412D00EDC1EC812C4065
:102C0000E40124C02580E5412700E7C1E681264094
:102C10002200E2C1E3812340E10121C02080E041A4
:102C2000A00160C06180A1416300A3C1A281624094
:102C30006600A6C1A7816740A50165C06480A44164
:102C40006C00ACC1AD816D40AF016FC06E80AE4114
:102C5000AA016AC06B80AB416900A9C1A881684024
:102C60007800B8C1B9817940BB017BC07A80BA4194
:102C7000BE017EC07F80BF417D00BDC1BC817C4064
:102C8000B40174C07580B5417700B7C1B681764094
:102C90007200B2C1B3817340B10171C07080B041A4
:102CA000500090C191815140930153C05280924194
:102CB000960156C057809741550095C19481544064
:102CC0009C015CC05D809D415F009FC19E815E4014
:102CD0005A009AC19B815B40990159C05880984124
:102CE000880148C0498089414B008BC18A814A4094
:102CF0004E008EC18F814F408D014DC04C808C4164
:102D0000440084C185814540870147C04680864193
:102D1000820142C043808341410081C180814040A3
:102D200000000000000000000000000000000000A3
:102D30000000000000000000000000000000000093
:102D40000000000000000000000000000000000083
:102D50000000000000000000000000000000000073
:102D600000000000467265654D61737465723A201B
:102D700043414E20636F6D6D616E642070726F63AE
:102D8000657373696E672064697361626C65640062
:102D9000467265654D61737465723A2043414E20F9
:102DA000636F6D6D616E642070726F6365737369BC
:102DB0006E6720656E61626C6564000046726565D1
:102DC0004D61737465723A204D6F746F7220636F3A
:102DD0006D6D616E647320626C6F636B6564202D32
:102DE0002043414E20636F6D6D616E642070726F81
:102DF00063657373696E6720697320656E61626CC9
:102E000065640000467265654D61737465723A20B1
:102E10004552524F523A204D6F746F72206472695E
:102E2000766572206E6F74207265616479000000AF
:102E3000467265654D61737465723A204552524F12
:102E4000523A204661696C656420746F206765742E
:102E5000206D6F746F7220256420706172616D65E2
:102E60007465727300000000467265654D6173748D
:102E700065723A204661696C656420746F207374D2
:102E8000617274204D6F746F722025642025730069
:102E9000467265654D61737465723A204661696C6E
:102EA000656420746F20736F66742073746F702074
:102EB0004D6F746F72202564000000005F466D5FE7
:102EC0006D6F746F725F636F6D6D616E645F656D62
:102ED000657267656E63795F73746F705F616C6C48
:102EE00000000000467265654D61737465723A209A
:102EF000416C6C206D6F746F727320656D657267C5
:102F0000656E63792073746F7000000046726565AA
:102F10004D61737465723A204661696C6564207412
:102F20006F20656D657267656E63792073746F706D
:102F300020616C6C206D6F746F72730046726565F2
:102F40004D61737465723A20416C6C206D6F746FC3
:102F5000727320636F6173742073746F700000006C
:102F6000467265654D61737465723A204661696C9D
:102F7000656420746F20636F6173742073746F7065
:102F800020616C6C206D6F746F72730046726565A2
:102F90004D61737465723A204D6F746F7220647264
:102FA0006976657220256420656E61626C652074A7
:102FB0006F67676C65640000467265654D61737488
:102FC00065723A205374617274696E67206D6F7414
:102FD0006F722063757272656E74206F66667365BA
:102FE000742063616C6962726174696F6E2E2E2E3B
:102FF00000000000467265654D61737465723A2089
:103000004552524F523A204661696C656420746F94
:103010002072657175657374206D6F746F722063B3
:10302000616C6962726174696F6E20287265737574
:103030006C743A20256C75290000000046726565A5
:103040004D61737465723A2043616C696272617498
:10305000696F6E20726571756573742073656E7427
:10306000207375636365737366756C6C7920286E65
:103070006F6E2D626C6F636B696E672900000000D4
:10308000467265654D61737465723A204368656385
:103090006B206D6F746F7220647269766572207434
:1030A0006872656164206C6F677320666F7220635D
:1030B000616C6962726174696F6E20636F6D706CB0
:1030C0006574696F6E20737461747573000000001D
:1030D000467265654D61737465723A204D61786919
:1030E0006D756D2063757272656E742074726163A4
:1030F0006B696E6720726573657420636F6D706CA9
:1031000065746564000000005F466D5F6D6F746FED
:10311000725F636F6D6D616E645F656D657267652B
:103120006E63795F73746F700000000046726565AE
:103130004D61737465723A204D6F746F722025640F
:1031400020656D657267656E63792073746F7000BA
:10315000467265654D61737465723A204661696CAB
:10316000656420746F20656D657267656E63792094
:1031700073746F70204D6F746F72202564000000AF
:10318000F94C0702154D0702BF4E0702E96207021C
:103190001164070231650702C16507022F66070245
:1031A0005D6607024D545500565300004E4D000019
:1031B00044530000424400004631000042410000F8
:1031C000524300005343000050560000504300009B
:1031D000A4310002A8310002AC310002B03100027B
:1031E000B4310002B8310002BC310002C03100022B
:1031F000C4310002C8310002CC31000289E5070267
:10320000A1E5070215E50702253033642064202577
:1032100030326420682025303264206D2025303221
:103220006420732025303664207573207C000000F4
:10323000467265654D61737465723A204661696CCA
:10324000656420746F20696E697469616C697A6560
:10325000204E455420696E74657266616365000096
:10326000467265654D61737465723A205375636388
:1032700065737366756C6C792073746172746564C0
:10328000206F6E204E455420696E746572666163CE
:1032900065000000467265654D61737465723A2081
:1032A0004661696C656420746F20696E6974696138
:1032B0006C697A652056434F4D312064726976659A
:1032C00072000000467265654D61737465723A2044
:1032D0004661696C656420746F20696E6974696108
:1032E0006C697A652053455249414C20696E74657A
:1032F0007266616365000000467265654D617374B6
:1033000065723A205375636365737366756C6C7987
:103310002073746172746564206F6E205345524946
:10332000414C20696E74657266616365202856435E
:103330004F4D312900000000467265654D61737480
:1033400065723A20496E76616C696420696E7465B5
:10335000726661636520747970653A2025640000A7
:10336000467265654D61737465723A205069706587
:1033700020275379734C6F672720637265617465EA
:1033800064207375636365737366756C6C79000094
:10339000467265654D61737465723A204661696C69
:1033A000656420746F206372656174652070697054
:1033B0006520275379734C6F672700004672656557
:1033C0004D61737465723A204661696C656420745E
:1033D0006F20616C6C6F63617465206D656D6F72D9
:1033E0007920666F72207069706520646174612055
:1033F000282564206279746573290000467265652A
:103400004D61737465723A204E6F207375697461F3
:10341000626C6520696E74657266616365206176B1
:1034200061696C61626C652028555342206D6F6440
:10343000653A202564290000467265654D61737404
:103440006572207461736B206372656174696F6E5D
:10345000206661696C65643A20256400675F63706B
:10346000755F757361676500675F617665725F633D
:1034700070755F757361676500000000675F636169
:103480006E5F636F6D6D616E645F70726F636573A5
:1034900073696E675F656E61626C65640000000051
:1034A000675F647276315F656E5F73746174650027
:1034B000675F647276325F656E5F73746174650016
:1034C000675F73797374656D5F6572726F725F6643
:1034D0006C61677300000000675F746D63363230A3
:1034E000305F647269766572315F6572726F725FA8
:1034F000636F646500000000675F746D633632308F
:10350000305F647269766572325F6572726F725F86
:10351000636F646500000000675F746D633632306E
:10352000305F6D6F6E69746F72696E672E64726959
:103530007665725B305D2E696E69745F6572726F5D
:10354000725F636F64650000675F746D633632306D
:10355000305F6D6F6E69746F72696E672E64726929
:103560007665725B305D2E6C6173745F6773746136
:10357000745F6572726F7200675F746D63363230AC
:10358000305F6D6F6E69746F72696E672E647269F9
:103590007665725B305D2E6C6173745F6773746106
:1035A000745F76616C756500675F746D6336323089
:1035B000305F6D6F6E69746F72696E672E647269C9
:1035C0007665725B305D2E6572726F725F636F75C8
:1035D0006E740000675F746D63363230305F6D6FFC
:1035E0006E69746F72696E672E6472697665725B5C
:1035F000305D2E636F6D6D756E69636174696F6E9A
:103600005F6661696C75726573000000675F746D59
:1036100063363230305F6D6F6E69746F72696E67DA
:103620002E6472697665725B305D2E6472697665B0
:10363000725F6F7065726174696F6E616C0000001B
:10364000675F746D63363230305F6D6F6E69746FB3
:1036500072696E672E6472697665725B315D2E6980
:103660006E69745F6572726F725F636F646500008C
:10367000675F746D63363230305F6D6F6E69746F83
:1036800072696E672E6472697665725B315D2E6C4D
:103690006173745F67737461745F6572726F7200D7
:1036A000675F746D63363230305F6D6F6E69746F53
:1036B00072696E672E6472697665725B315D2E6C1D
:1036C0006173745F67737461745F76616C756500B4
:1036D000675F746D63363230305F6D6F6E69746F23
:1036E00072696E672E6472697665725B315D2E65F4
:1036F00072726F725F636F756E740000675F746DD6
:1037000063363230305F6D6F6E69746F72696E67E9
:103710002E6472697665725B315D2E636F6D6D75B7
:103720006E69636174696F6E5F6661696C757265FD
:1037300073000000675F746D63363230305F6D6F09
:103740006E69746F72696E672E6472697665725BFA
:10375000315D2E6472697665725F6F706572617437
:10376000696F6E616C000000675F746D63363230A4
:10377000305F6D6F6E69746F72696E672E706F6CFB
:103780006C5F696E74657276616C5F6D73000000CA
:10379000675F746D63363230305F6D6F6E69746F62
:1037A00072696E672E6D6F6E69746F72696E675F96
:1037B00061637469766500006164632E736D706C7B
:1037C0005F695F755F6D6F746F7231006164632E46
:1037D000736D706C5F695F765F6D6F746F723100CF
:1037E0006164632E736D706C5F695F775F6D6F747A
:1037F0006F7231006164632E736D706C5F695F7509
:103800005F6D6F746F7232006164632E736D706CE4
:103810005F695F765F6D6F746F7232006164632EF3
:10382000736D706C5F695F775F6D6F746F7232007C
:103830006164632E736D706C5F765F755F6D6F741E
:103840006F7231006164632E736D706C5F765F76AA
:103850005F6D6F746F7231006164632E736D706C95
:103860005F765F775F6D6F746F7231006164632E96
:10387000736D706C5F765F755F6D6F746F72320021
:103880006164632E736D706C5F765F765F6D6F74CD
:103890006F7232006164632E736D706C5F765F7758
:1038A0005F6D6F746F7232006164632E736D706C44
:1038B0005F697077725F6D6F746F72310000000026
:1038C0006164632E736D706C5F697077725F6D6F8A
:1038D000746F7232000000006164632E736D706C4F
:1038E0005F73706565645F6D6F746F7231000000A7
:1038F0006164632E736D706C5F73706565645F6D7A
:103900006F746F72320000006164632E736D706CAF
:103910005F706F735F6D6F746F7231006164632EDF
:10392000736D706C5F706F735F6D6F746F72320068
:103930006164632E736D706C5F763234765F6D6F89
:103940006E0000006164632E736D706C5F76357677
:103950005F6D6F6E000000006164632E736D706CAC
:103960005F763376335F6D6F6E0000006164632EA7
:10397000736D706C5F746865726D6973746F725F7C
:103980006D3100006164632E736D706C5F746865E7
:10399000726D6973746F725F6D3200006164632EC3
:1039A000736D706C5F6370755F74656D700000009F
:1039B0006164632E736D706C5F695F755F6F6666BF
:1039C000735F6D31000000006164632E736D706C75
:1039D0005F695F765F6F6666735F6D310000000040
:1039E0006164632E736D706C5F695F775F6F66668D
:1039F000735F6D31000000006164632E736D706C45
:103A00005F695F755F6F6666735F6D32000000000F
:103A10006164632E736D706C5F695F765F6F66665D
:103A2000735F6D32000000006164632E736D706C13
:103A30005F695F775F6F6666735F6D3200000000DD
:103A40006164632E765F755F6D6F746F7231000015
:103A50006164632E765F765F6D6F746F7231000004
:103A60006164632E765F775F6D6F746F72310000F3
:103A70006164632E765F755F6D6F746F72320000E4
:103A80006164632E765F765F6D6F746F72320000D3
:103A90006164632E765F775F6D6F746F72320000C2
:103AA0006164632E697077725F6D6F746F7231003D
:103AB0006164632E697077725F6D6F746F7232002C
:103AC0006164632E73706565645F6D6F746F7231CE
:103AD000000000006164632E73706565645F6D6F44
:103AE000746F7232000000006164632E706F735F48
:103AF0006D6F746F723100006164632E706F735F5D
:103B00006D6F746F723200006164632E76323476AA
:103B10005F737570706C79006164632E7635765FC3
:103B2000737570706C7900006164632E7633763340
:103B30005F737570706C79006164632E74656D706D
:103B40005F6D6F746F7231006164632E74656D70A8
:103B50005F6D6F746F7232006164632E6370755FA6
:103B600074656D70000000006164632E6164635FC2
:103B70007363616C650000006164632E706861733B
:103B8000655F63757272656E745F7363616C650007
:103B90006164632E706F7765725F63757272656EB4
:103BA000745F7363616C65006164632E7068617338
:103BB000655F766F6C746167655F7363616C6500E8
:103BC0006164632E6163746976655F6D6F746F7293
:103BD000000000006164632E6163746976655F7044
:103BE00068617365000000006164632E7363616E39
:103BF0005F6379636C655F636F756E7465720000F7
:103C0000777661722E646973706C61795F6F726927
:103C1000656E746174696F6E000000007776617282
:103C20002E656E5F667265656D6173746572000006
:103C3000777661722E656E5F6C6F675F746F5F661B
:103C40007265656D617374657200000077766172EC
:103C50002E656E61626C655F6C6F6700777661726E
:103C60002E656E5F6C6F675F746F5F66696C650071
:103C7000777661722E656E5F636F6D7072657373B8
:103C80005F73657474696E7300000000777661720B
:103C90002E656E5F666F726D617465645F736574C7
:103CA00074696E6773000000777661722E70776DAD
:103CB0005F6672657175656E637900007776617213
:103CC0002E7573625F6D6F646500000077766172B8
:103CD0002E73686F72745F76735F6465745F6C6572
:103CE00076656C00777661722E73686F72745F67A9
:103CF0006E645F6465745F6C6576656C00000000DF
:103D0000777661722E73686F72745F6465745F7327
:103D100070696B655F66696C746572007776617255
:103D20002E73686F72745F6465745F64656C61792B
:103D30005F706172616D0000777661722E656E61F1
:103D4000626C655F73686F72745F746F5F676E64D7
:103D50005F70726F74000000777661722E656E611D
:103D6000626C655F73686F72745F746F5F76735FA8
:103D700070726F7400000000777661722E67617454
:103D8000655F6472697665725F63757272656E7481
:103D90005F706172616D0000777661722E73687575
:103DA0006E745F7265736973746F72007776617297
:103DB0002E696E7075745F7368756E745F7265736B
:103DC0006973746F72000000777661722E6D6F7484
:103DD0006F725F315F6D61785F70776D5F70657274
:103DE00063656E7400000000777661722E6D6F74EB
:103DF0006F725F315F646972656374696F6E5F696A
:103E00006E76657274000000777661722E6D6F7445
:103E10006F725F315F616363656C5F74696D655F6D
:103E20006D730000777661722E6D6F746F725F3103
:103E30005F646563656C5F74696D655F6D730000D9
:103E4000777661722E6D6F746F725F315F616C6730
:103E50006F726974686D0000777661722E6D6F7491
:103E60006F725F325F6D61785F70776D5F706572E2
:103E700063656E7400000000777661722E6D6F745A
:103E80006F725F325F646972656374696F6E5F69D8
:103E90006E76657274000000777661722E6D6F74B5
:103EA0006F725F325F616363656C5F74696D655FDC
:103EB0006D730000777661722E6D6F746F725F3272
:103EC0005F646563656C5F74696D655F6D73000049
:103ED000777661722E6D6F746F725F325F616C679F
:103EE0006F726974686D0000777661722E6D6F7401
:103EF0006F725F335F6D61785F70776D5F70657251
:103F000063656E7400000000777661722E6D6F74C9
:103F10006F725F335F646972656374696F6E5F6946
:103F20006E76657274000000777661722E6D6F7424
:103F30006F725F335F616363656C5F74696D655F4A
:103F40006D730000777661722E6D6F746F725F33E0
:103F50005F646563656C5F74696D655F6D730000B8
:103F6000777661722E6D6F746F725F335F616C670D
:103F70006F726974686D0000777661722E6D6F7470
:103F80006F725F345F6D61785F70776D5F706572BF
:103F900063656E7400000000777661722E6D6F7439
:103FA0006F725F345F646972656374696F6E5F69B5
:103FB0006E76657274000000777661722E6D6F7494
:103FC0006F725F345F616363656C5F74696D655FB9
:103FD0006D730000777661722E6D6F746F725F344F
:103FE0005F646563656C5F74696D655F6D73000028
:103FF000777661722E6D6F746F725F345F616C677C
:104000006F726974686D00006164632E695F755F2B
:104010006D6F746F72315F66617374006164632EDB
:10402000695F765F6D6F746F72315F666173740084
:104030006164632E695F775F6D6F746F72315F6665
:10404000617374006164632E695F755F6D6F746F77
:1040500072325F66617374006164632E695F765FBC
:104060006D6F746F72325F66617374006164632E8A
:10407000695F775F6D6F746F72325F666173740032
:104080006164632E695F755F6D6F746F72315F730A
:104090006C6F77006164632E695F765F6D6F746F1C
:1040A00072315F736C6F77006164632E695F775F55
:1040B0006D6F746F72315F736C6F77006164632E24
:1040C000695F755F6D6F746F72325F736C6F7700CD
:1040D0006164632E695F765F6D6F746F72325F73B8
:1040E0006C6F77006164632E695F775F6D6F746FCB
:1040F00072325F736C6F7700675F656D615F616CD3
:104100007068615F63757272656E745F6661737407
:104110005F32636800000000675F656D615F616C1E
:104120007068615F63757272656E745F736C6F77D0
:104130005F32636800000000675F6D61785F6375E0
:104140007272656E745F6D6F746F72315F616363FD
:10415000656C0000675F6D61785F63757272656E94
:10416000745F6D6F746F72315F72756E0000000066
:10417000675F6D61785F63757272656E745F6D6F96
:10418000746F72315F6272616B650000675F6D61B1
:10419000785F63757272656E745F6D6F746F723283
:1041A0005F616363656C0000675F6D61785F637575
:1041B0007272656E745F6D6F746F72325F72756E5E
:1041C00000000000675F6D61785F63757272656EF5
:1041D000745F6D6F746F72325F6272616B65000045
:1041E000675F6D61785F63757272656E745F6D6F26
:1041F000746F72335F616363656C0000675F6D614C
:10420000785F63757272656E745F6D6F746F723311
:104210005F72756E00000000675F6D61785F6375A7
:104220007272656E745F6D6F746F72335F6272610C
:104230006B650000675F6D61785F63757272656EB4
:10424000745F6D6F746F72345F616363656C0000DF
:10425000675F6D61785F63757272656E745F6D6FB5
:10426000746F72345F72756E00000000675F6D617D
:10427000785F63757272656E745F6D6F746F7234A0
:104280005F6272616B650000675F6D6F746F725F74
:104290007374617465735B305D2E646972656374F9
:1042A000696F6E00675F6D6F746F725F73746174B6
:1042B00065735B305D2E70776D5F6C6576656C0045
:1042C000675F6D6F746F725F7374617465735B3079
:1042D0005D2E656E61626C6564000000675F6D6FE6
:1042E000746F725F7374617465735B305D2E736F8E
:1042F00066745F73746172745F73746174650000D7
:10430000675F6D6F746F725F7374617465735B3038
:104310005D2E7461726765745F70776D00000000D8
:10432000675F6D6F746F725F7374617465735B3018
:104330005D2E6F726967696E616C5F74617267652B
:10434000745F70776D000000675F6D6F746F725FF0
:104350007374617465735B305D2E63757272656E24
:10436000745F70776D5F783130300000675F6D6F1C
:10437000746F725F7374617465735B305D2E7374F8
:1043800065705F636F756E7465720000675F6D6F57
:10439000746F725F7374617465735B305D2E7077D8
:1043A0006D5F737465705F73697A655F7831303003
:1043B00000000000675F6D6F746F725F73746174EB
:1043C00065735B305D2E7461726765745F646972DA
:1043D000656374696F6E0000675F6D6F746F725F05
:1043E0007374617465735B305D2E736F66745F7395
:1043F000746172745F696E697469616C697A65640D
:1044000000000000675F6D6F746F725F737461749A
:1044100065735B305D2E636F6E666C6963745F6499
:104420006574656374656400675F6D6F746F725F58
:104430007374617465735B305D2E72756E5F706846
:104440006173655F73746172745F74696D65000098
:10445000675F6D6F746F725F7374617465735B31E6
:104460005D2E646972656374696F6E00675F6D6F5E
:10447000746F725F7374617465735B315D2E7077F6
:104480006D5F6C6576656C00675F6D6F746F725FF2
:104490007374617465735B315D2E656E61626C650A
:1044A00064000000675F6D6F746F725F7374617496
:1044B00065735B315D2E736F66745F7374617274C4
:1044C0005F73746174650000675F6D6F746F725F16
:1044D0007374617465735B315D2E746172676574AA
:1044E0005F70776D00000000675F6D6F746F725FC3
:1044F0007374617465735B315D2E6F726967696E89
:10450000616C5F7461726765745F70776D00000045
:10451000675F6D6F746F725F7374617465735B3125
:104520005D2E63757272656E745F70776D5F783142
:1045300030300000675F6D6F746F725F7374617409
:1045400065735B315D2E737465705F636F756E7438
:1045500065720000675F6D6F746F725F7374617472
:1045600065735B315D2E70776D5F737465705F731B
:10457000697A655F7831303000000000675F6D6FE9
:10458000746F725F7374617465735B315D2E7461F7
:10459000726765745F646972656374696F6E000049
:1045A000675F6D6F746F725F7374617465735B3195
:1045B0005D2E736F66745F73746172745F696E6988
:1045C0007469616C697A656400000000675F6D6FF3
:1045D000746F725F7374617465735B315D2E636FAA
:1045E0006E666C6963745F646574656374656400AA
:1045F000675F6D6F746F725F7374617465735B3145
:104600005D2E72756E5F70686173655F7374617241
:10461000745F74696D650000675F6D6F746F725FC2
:104620007374617465735B325D2E64697265637463
:10463000696F6E00675F6D6F746F725F7374617422
:1046400065735B325D2E70776D5F6C6576656C00AF
:10465000675F6D6F746F725F7374617465735B32E3
:104660005D2E656E61626C6564000000675F6D6F52
:10467000746F725F7374617465735B325D2E736FF8
:1046800066745F73746172745F7374617465000043
:10469000675F6D6F746F725F7374617465735B32A3
:1046A0005D2E7461726765745F70776D0000000045
:1046B000675F6D6F746F725F7374617465735B3283
:1046C0005D2E6F726967696E616C5F746172676598
:1046D000745F70776D000000675F6D6F746F725F5D
:1046E0007374617465735B325D2E63757272656E8F
:1046F000745F70776D5F783130300000675F6D6F89
:10470000746F725F7374617465735B325D2E737462
:1047100065705F636F756E7465720000675F6D6FC3
:10472000746F725F7374617465735B325D2E707742
:104730006D5F737465705F73697A655F783130306F
:1047400000000000675F6D6F746F725F7374617457
:1047500065735B325D2E7461726765745F64697244
:10476000656374696F6E0000675F6D6F746F725F71
:104770007374617465735B325D2E736F66745F73FF
:10478000746172745F696E697469616C697A656479
:1047900000000000675F6D6F746F725F7374617407
:1047A00065735B325D2E636F6E666C6963745F6404
:1047B0006574656374656400675F6D6F746F725FC5
:1047C0007374617465735B325D2E72756E5F7068B1
:1047D0006173655F73746172745F74696D65000005
:1047E000675F6D6F746F725F7374617465735B3351
:1047F0005D2E646972656374696F6E00675F6D6FCB
:10480000746F725F7374617465735B335D2E707760
:104810006D5F6C6576656C00675F6D6F746F725F5E
:104820007374617465735B335D2E656E61626C6574
:1048300064000000675F6D6F746F725F7374617402
:1048400065735B335D2E736F66745F73746172742E
:104850005F73746174650000675F6D6F746F725F82
:104860007374617465735B335D2E74617267657414
:104870005F70776D00000000675F6D6F746F725F2F
:104880007374617465735B335D2E6F726967696EF3
:10489000616C5F7461726765745F70776D000000B2
:1048A000675F6D6F746F725F7374617465735B3390
:1048B0005D2E63757272656E745F70776D5F7831AF
:1048C00030300000675F6D6F746F725F7374617476
:1048D00065735B335D2E737465705F636F756E74A3
:1048E00065720000675F6D6F746F725F73746174DF
:1048F00065735B335D2E70776D5F737465705F7386
:10490000697A655F7831303000000000675F6D6F55
:10491000746F725F7374617465735B335D2E746161
:10492000726765745F646972656374696F6E0000B5
:10493000675F6D6F746F725F7374617465735B33FF
:104940005D2E736F66745F73746172745F696E69F4
:104950007469616C697A656400000000675F6D6F5F
:10496000746F725F7374617465735B335D2E636F14
:104970006E666C6963745F64657465637465640016
:10498000675F6D6F746F725F7374617465735B33AF
:104990005D2E72756E5F70686173655F73746172AE
:1049A000745F74696D6500005C3400020A160002D1
:1049B0008C87072213000000683400020A160002E8
:1049C00088870722130000007C340002D216000200
:1049D0000408002207000000A0340002D2160002E2
:1049E00094EB072207000000B0340002D216000248
:1049F00095EB072207000000C03400020A160002EF
:104A0000F84D082213000000D8340002D21600022C
:104A1000B5E7072207000000F8340002D2160002B2
:104A2000B6E707220700000018350002D216000280
:104A300001EB07220700000048350002D2160002F1
:104A400002EB072207000000783500020A16000278
:104A500004EB072213000000A83500020A1600022A
:104A600008EB072213000000D43500020A160002EA
:104A70000CEB0722130000000C360002D2160002D5
:104A800014EB07220700000040360002D216000295
:104A900045EB07220700000070360002D216000224
:104AA00046EB072207000000A03600020A160002AB
:104AB00048EB072213000000D03600020A1600025D
:104AC0004CEB072213000000FC3600020A1600021D
:104AD00050EB07221300000034370002D216000208
:104AE00058EB072207000000683700020A16000290
:104AF00088EB07221300000090370002D216000254
:104B000090EB072207000000B83700027A17000276
:104B1000007001220B000000CC3700027A1700025F
:104B2000027001220B000000E03700027A17000239
:104B3000047001220B000000F43700027A17000213
:104B4000067001220B000000083800027A170002EC
:104B5000087001220B0000001C3800027A170002C6
:104B60000A7001220B000000303800027A170002A0
:104B70000C7001220B000000443800027A1700027A
:104B80000E7001220B000000583800027A17000254
:104B9000107001220B0000006C3800027A1700022E
:104BA000127001220B000000803800027A17000208
:104BB000147001220B000000943800027A170002E2
:104BC000167001220B000000A83800027A170002BC
:104BD000187001220B000000C03800027A17000292
:104BE0001A7001220B000000D83800027A17000268
:104BF0001C7001220B000000F03800027A1700023E
:104C00001E7001220B000000083900027A17000212
:104C1000207001220B0000001C3900027A170002EC
:104C2000227001220B000000303900027A170002C6
:104C3000247001220B000000443900027A170002A0
:104C4000267001220B000000583900027A1700027A
:104C5000287001220B0000006C3900027A17000254
:104C60002A7001220B000000843900027A1700022A
:104C70002C7001220B0000009C3900027A17000200
:104C8000007101220B000000B03900027A17000207
:104C9000AC7001220B000000C83900027A17000234
:104CA000AE7001220B000000E03900027A1700020A
:104CB000B07001220B000000F83900027A170002E0
:104CC000B27001220B000000103A00027A170002B5
:104CD000B47001220B000000283A00027A1700028B
:104CE000B67001220B000000403A000206180002D4
:104CF0003471012213000000503A0002061800022D
:104D00003871012213000000603A00020618000208
:104D10003C71012213000000703A000206180002E4
:104D20004071012213000000803A000206180002C0
:104D30004471012213000000903A0002061800029C
:104D40004871012213000000A03A00020618000278
:104D50004C71012213000000B03A00020618000254
:104D60005071012213000000C03A00020618000230
:104D70005471012213000000D43A00020618000208
:104D80005871012213000000E83A000206180002E0
:104D90005C71012213000000F83A000206180002BC
:104DA0006071012213000000083B00020618000297
:104DB0006471012213000000183B00020618000273
:104DC0006871012213000000283B0002061800024F
:104DD0006C71012213000000383B0002061800022B
:104DE0007471012213000000483B00020618000203
:104DF0007871012213000000583B000206180002DF
:104E00007071012213000000683B000206180002C6
:104E10007C71012213000000783B0002061800029A
:104E20009071012213000000903B0002061800025E
:104E30009471012213000000A83B00020618000232
:104E40009871012213000000C03B0002D21600023C
:104E5000F970012207000000D43B0002D2160002C4
:104E6000FA70012207000000E83B00020A16000267
:104E7000FC70012213000000003C0002D216000268
:104E8000249C0722070000001C3C0002D2160002EE
:104E9000259C072207000000303C0002D2160002C9
:104EA000269C0722070000004C3C0002D21600029C
:104EB000E79C0722070000005C3C0002D2160002BB
:104EC000E89C072207000000703C0002D216000296
:104ED000E99C0722070000008C3C0002D216000269
:104EE000EA9C072207000000A83C00020A16000204
:104EF000EC9C072213000000BC3C00020A160002D2
:104F0000F09C072213000000CC3C00020A160002AD
:104F1000F49C072213000000E43C00020A16000281
:104F2000F89C072213000000003D00020A16000250
:104F3000FC9C0722130000001C3D00020A16000220
:104F4000009D072213000000383D0002D216000227
:104F5000049D072207000000583D0002D2160002FF
:104F6000059D072207000000783D00020A16000296
:104F7000089D072213000000983D00020618000259
:104F80000C9D072213000000AC3D00020618000231
:104F9000109D072213000000C83D0002D216000237
:104FA000149D072207000000E83D0002D21600020F
:104FB000159D072207000000083E00020A160002A5
:104FC000189D072213000000243E00020A1600026A
:104FD0001C9D072213000000403E0002D216000272
:104FE000209D072207000000583E0002D216000252
:104FF000289D072207000000783E0002D21600021A
:10500000299D072207000000983E00020A160002B0
:105010002C9D072213000000B43E00020A16000275
:10502000309D072213000000D03E0002D21600027D
:10503000349D072207000000E83E0002D21600025D
:105040003C9D072207000000083F0002D216000224
:105050003D9D072207000000283F00020A160002BB
:10506000409D072213000000443F00020A16000280
:10507000449D072213000000603F0002D216000288
:10508000489D072207000000783F0002D216000268
:10509000509D072207000000983F0002D216000230
:1050A000519D072207000000B83F00020A160002C7
:1050B000549D072213000000D43F00020A1600028C
:1050C000589D072213000000F03F0002D216000294
:1050D0005C9D07220700000008400002061800023D
:1050E00004710122130000001C4000020618000297
:1050F000087101221300000030400002061800026F
:105100000C71012213000000444000020618000246
:10511000107101221300000058400002061800021E
:1051200014710122130000006C40000206180002F6
:1051300018710122130000008040000206180002CE
:105140001C710122130000009440000206180002A6
:105150002071012213000000A8400002061800027E
:105160002471012213000000BC4000020618000256
:105170002871012213000000D0400002061800022E
:105180002C71012213000000E44000020618000206
:105190003071012213000000F84000027A1700026B
:1051A000FC0700220B000000184100027A170002E1
:1051B000FE0700220B000000384100020618000222
:1051C000C8EB072213000000544100020618000239
:1051D000CCEB072213000000704100020618000209
:1051E000D0EB0722130000008C41000206180002D9
:1051F000D4EB072213000000A841000206180002A9
:10520000D8EB072213000000C44100020618000278
:10521000DCEB072213000000E04100020618000248
:10522000E0EB072213000000FC4100020618000218
:10523000E4EB0722130000001842000206180002E7
:10524000E8EB0722130000003442000206180002B7
:10525000ECEB072213000000504200020618000287
:10526000F0EB0722130000006C4200020618000257
:10527000F4EB07221300000088420002D21600025D
:1052800010EE072207000000A44200027A17000275
:1052900012EE07220B000000C0420002D2160002EC
:1052A00014EE072207000000DC420002D2160002C2
:1052B00015EE072207000000004300027A170002E3
:1052C00016EE07220B000000204300027A170002AE
:1052D00018EE07220B000000484300027A17000274
:1052E0001AEE07220B0000006C4300020A160002AF
:1052F0001CEE0722130000008C4300027A17000204
:1053000020EE07220B000000B4430002D216000278
:1053100022EE072207000000D8430002D216000246
:1053200023EE07220700000004440002D216000208
:1053300024EE072207000000284400020A1600029B
:1053400028EE07221300000050440002D21600028B
:1053500030EE0722070000006C4400027A170002BA
:1053600032EE07220B00000088440002D216000231
:1053700034EE072207000000A4440002D216000207
:1053800035EE072207000000C84400027A17000229
:1053900036EE07220B000000E84400027A170002F4
:1053A00038EE07220B000000104500027A170002B9
:1053B0003AEE07220B000000344500020A160002F4
:1053C0003CEE072213000000544500027A17000249
:1053D00040EE07220B0000007C450002D2160002BE
:1053E00042EE072207000000A0450002D21600028C
:1053F00043EE072207000000CC450002D21600024F
:1054000044EE072207000000F04500020A160002E1
:1054100048EE07221300000018460002D2160002D0
:1054200050EE072207000000344600027A170002FF
:1054300052EE07220B00000050460002D216000276
:1054400054EE0722070000006C460002D21600024C
:1054500055EE072207000000904600027A1700026E
:1054600056EE07220B000000B04600027A17000239
:1054700058EE07220B000000D84600027A170002FF
:105480005AEE07220B000000FC4600020A1600023A
:105490005CEE0722130000001C4700027A1700028E
:1054A00060EE07220B00000044470002D216000203
:1054B00062EE07220700000068470002D2160002D1
:1054C00063EE07220700000094470002D216000294
:1054D00064EE072207000000B84700020A16000227
:1054E00068EE072213000000E0470002D216000217
:1054F00070EE072207000000FC4700027A17000246
:1055000072EE07220B00000018480002D2160002BB
:1055100074EE07220700000034480002D216000291
:1055200075EE072207000000584800027A170002B3
:1055300076EE07220B000000784800027A1700027E
:1055400078EE07220B000000A04800027A17000244
:105550007AEE07220B000000C44800020A1600027F
:105560007CEE072213000000E44800027A170002D4
:1055700080EE07220B0000000C490002D216000248
:1055800082EE07220700000030490002D216000216
:1055900083EE0722070000005C490002D2160002D9
:1055A00084EE072207000000804900020A1600026C
:1055B00088EE07221300000046533A204D656469C7
:1055C00061206973206E6F74206F70656E206F723A
:1055D00020696E76616C69642E00000046533A20A3
:1055E0004572726F722067657474696E67206176A8
:1055F00061696C61626C652073706163653A202536
:105600006400000046533A204765742052544320FA
:1056100074696D65206572723A2025642E20557379
:10562000696E6720636F6D70696C6174696F6E205D
:10563000646174652E00000046533A20536574205F
:10564000636F6D70696C6174696F6E2064617465FD
:105650003A20253034642D253032642D25303264D3
:1056600020253032643A253032643A2530326400E5
:1056700060004100420043004400450046004700EE
:10568000480049004A004B004C004D004E004F00BE
:10569000500051005200530054005500560057006E
:1056A000580059005A007B007C007D007E007F007E
:1056B000C000C100C200C300C400C500C600C700CE
:1056C000C800C900CA00CB00CC00CD00CE00CF007E
:1056D000D000D100D200D300D400D500D600F7000E
:1056E000D800D900DA00DB00DC00DD00DE00780144
:1056F000000100010201020104010401060106018A
:10570000080108010A010A010C010C010E010E0139
:1057100010011001120112011401140116011601E9
:10572000180118011A011A011C011C011E011E0199
:105730002001200122012201240124012601260149
:10574000280128012A012A012C012C012E012E01F9
:1057500030013101320132013401340136013601A8
:105760003801390139013B013B013D013D013F0158
:105770003F01410141014301430145014501470109
:10578000470149014A014A014C014C014E014E01B9
:105790005001500152015201540154015601560169
:1057A000580158015A015A015C015C015E015E0119
:1057B00060016001620162016401640166016601C9
:1057C000680168016A016A016C016C016E016E0179
:1057D0007001700172017201740174017601760129
:1057E0007801790179017B017B017D017D017F01D8
:1057F00043028101820182018401840186018701C3
:10580000870189018A018B018B018D018E018F0136
:1058100090019101910193019401F6019601970184
:10582000980198013D029B019C019D0120029F016E
:10583000A001A001A201A201A401A401A601A70147
:10584000A701A901AA01AB01AC01AC01AE01AF01F6
:10585000AF01B101B201B301B301B501B501B701A7
:10586000B801B801BA01BB01BC01BC01BE01F7011E
:10587000C001C101C201C301C401C501C401C70106
:10588000C801C701CA01CB01CA01CD01CD01CF01B9
:10589000CF01D101D101D301D301D501D501D70168
:1058A000D701D901D901DB01DB018E01DE01DE0167
:1058B000E001E001E201E201E401E401E601E601C8
:1058C000E801E801EA01EA01EC01EC01EE01EE0178
:1058D000F001F101F201F101F401F401F601F70127
:1058E000F801F801FA01FA01FC01FC01FE01FE01D8
:1058F0000002000202020202040204020602060280
:10590000080208020A020A020C020C020E020E022F
:1059100010021002120212021402140216021602DF
:10592000180218021A021A021C021C021E021E028F
:10593000200221022202220224022402260226023E
:10594000280228022A022A022C022C022E022E02EF
:10595000300230023202320234023502360237029D
:1059600038023902652C3B023B023D02662C3F02A5
:1059700040024102410243024402450246024602FD
:10598000480248024A024A024C024C024E024E02AF
:1059900050025102520281018601550289018A0199
:1059A00058028F015A0290015C025D025E025F02A2
:1059B0009301610262029401640265026602670259
:1059C000970196016A02622C6C026D026E029C01C4
:1059D000700271029D01730274029F0176027702C8
:1059E000780279027A027B027C02642C7E027F02BA
:1059F000A60181028202A901840285028602870231
:105A0000AE014402B101B20145028D028E028F0245
:105A100090029102B70193029402950296029702B6
:105A2000980299029A029B029C029D029E029F028A
:105A300070037103720373037403750376037703B2
:105A4000780379037A03FD03FE03FF037E037F03DC
:105A5000A003A103A203A303A403A503A603A70312
:105A6000A803A903AA03AB038603880389038A0357
:105A7000B003910392039303940395039603970352
:105A8000980399039A039B039C039D039E039F0322
:105A9000A003A103A303A303A403A503A603A703D1
:105AA000A803A903AA03AB038C038E038F03CF03C0
:105AB000D003D103D203D303D403D503D603D70332
:105AC000D803D803DA03DA03DC03DC03DE03DE03E6
:105AD000E003E003E203E203E403E403E603E60396
